{
  "contractName": "MyContract",
  "abi": [
    {
      "constant": true,
      "inputs": [],
      "name": "owner",
      "outputs": [
        {
          "name": "",
          "type": "address"
        }
      ],
      "payable": false,
      "stateMutability": "view",
      "type": "function"
    },
    {
      "constant": true,
      "inputs": [],
      "name": "currentPrice",
      "outputs": [
        {
          "name": "",
          "type": "uint256"
        }
      ],
      "payable": false,
      "stateMutability": "view",
      "type": "function"
    },
    {
      "inputs": [],
      "payable": false,
      "stateMutability": "nonpayable",
      "type": "constructor"
    },
    {
      "anonymous": false,
      "inputs": [
        {
          "indexed": true,
          "name": "id",
          "type": "bytes32"
        }
      ],
      "name": "ChainlinkRequested",
      "type": "event"
    },
    {
      "anonymous": false,
      "inputs": [
        {
          "indexed": true,
          "name": "id",
          "type": "bytes32"
        }
      ],
      "name": "ChainlinkFulfilled",
      "type": "event"
    },
    {
      "anonymous": false,
      "inputs": [
        {
          "indexed": true,
          "name": "id",
          "type": "bytes32"
        }
      ],
      "name": "ChainlinkCancelled",
      "type": "event"
    },
    {
      "constant": false,
      "inputs": [],
      "name": "requestEthereumPrice",
      "outputs": [
        {
          "name": "",
          "type": "bytes32"
        }
      ],
      "payable": false,
      "stateMutability": "nonpayable",
      "type": "function"
    },
    {
      "constant": false,
      "inputs": [
        {
          "name": "_requestId",
          "type": "bytes32"
        },
        {
          "name": "_price",
          "type": "uint256"
        }
      ],
      "name": "fulfill",
      "outputs": [],
      "payable": false,
      "stateMutability": "nonpayable",
      "type": "function"
    },
    {
      "constant": false,
      "inputs": [],
      "name": "withdrawLink",
      "outputs": [],
      "payable": false,
      "stateMutability": "nonpayable",
      "type": "function"
    }
  ],
  "bytecode": "0x6080604052600160045534801561001557600080fd5b506100427301be23585060835e02b77ef475b0cc51aa1e07096100b4640100000000026401000000009004565b61006e737afe1118ea78c1eae84ca8fee5c65bc76ccf879e6100f8640100000000026401000000009004565b33600760006101000a81548173ffffffffffffffffffffffffffffffffffffffff021916908373ffffffffffffffffffffffffffffffffffffffff16021790555061013c565b80600260006101000a81548173ffffffffffffffffffffffffffffffffffffffff021916908373ffffffffffffffffffffffffffffffffffffffff16021790555050565b80600360006101000a81548173ffffffffffffffffffffffffffffffffffffffff021916908373ffffffffffffffffffffffffffffffffffffffff16021790555050565b6114108061014b6000396000f30060806040526004361061006d576000357c0100000000000000000000000000000000000000000000000000000000900463ffffffff1680634357855e146100725780638da5cb5b146100ad5780638dc654a2146101045780639d1b464a1461011b578063d7f29c6314610146575b600080fd5b34801561007e57600080fd5b506100ab600480360381019080803560001916906020019092919080359060200190929190505050610179565b005b3480156100b957600080fd5b506100c26102f9565b604051808273ffffffffffffffffffffffffffffffffffffffff1673ffffffffffffffffffffffffffffffffffffffff16815260200191505060405180910390f35b34801561011057600080fd5b5061011961031f565b005b34801561012757600080fd5b506101306105b1565b6040518082815260200191505060405180910390f35b34801561015257600080fd5b5061015b6105b7565b60405180826000191660001916815260200191505060405180910390f35b8160056000826000191660001916815260200190815260200160002060009054906101000a900473ffffffffffffffffffffffffffffffffffffffff1673ffffffffffffffffffffffffffffffffffffffff163373ffffffffffffffffffffffffffffffffffffffff1614151561027e576040517f08c379a00000000000000000000000000000000000000000000000000000000081526004018080602001828103825260288152602001807f536f75726365206d75737420626520746865206f7261636c65206f662074686581526020017f207265717565737400000000000000000000000000000000000000000000000081525060400191505060405180910390fd5b60056000826000191660001916815260200190815260200160002060006101000a81549073ffffffffffffffffffffffffffffffffffffffff021916905580600019167f7cc135e0cebb02c3480ae5d74d377283180a2601f8f644edf7987b009316c63a60405160405180910390a281600681905550505050565b600760009054906101000a900473ffffffffffffffffffffffffffffffffffffffff1681565b6000600760009054906101000a900473ffffffffffffffffffffffffffffffffffffffff1673ffffffffffffffffffffffffffffffffffffffff163373ffffffffffffffffffffffffffffffffffffffff1614151561037d57600080fd5b61038561079c565b90508073ffffffffffffffffffffffffffffffffffffffff1663a9059cbb338373ffffffffffffffffffffffffffffffffffffffff166370a08231306040518263ffffffff167c0100000000000000000000000000000000000000000000000000000000028152600401808273ffffffffffffffffffffffffffffffffffffffff1673ffffffffffffffffffffffffffffffffffffffff168152602001915050602060405180830381600087803b15801561043f57600080fd5b505af1158015610453573d6000803e3d6000fd5b505050506040513d602081101561046957600080fd5b81019080805190602001909291905050506040518363ffffffff167c0100000000000000000000000000000000000000000000000000000000028152600401808373ffffffffffffffffffffffffffffffffffffffff1673ffffffffffffffffffffffffffffffffffffffff16815260200182815260200192505050602060405180830381600087803b1580156104ff57600080fd5b505af1158015610513573d6000803e3d6000fd5b505050506040513d602081101561052957600080fd5b810190808051906020019092919050505015156105ae576040517f08c379a00000000000000000000000000000000000000000000000000000000081526004018080602001828103825260128152602001807f556e61626c6520746f207472616e73666572000000000000000000000000000081525060200191505060405180910390fd5b50565b60065481565b60006105c1611342565b61060f7f366431626665323765373033346231643837623532373035353662313732373730634357855e7c0100000000000000000000000000000000000000000000000000000000026107c6565b90506106b76040805190810160405280600381526020017f6765740000000000000000000000000000000000000000000000000000000000815250606060405190810160405280603f81526020017f68747470733a2f2f6d696e2d6170692e63727970746f636f6d706172652e636f81526020017f6d2f646174612f70726963653f6673796d3d455448267473796d733d55534400815250836107f79092919063ffffffff16565b6107366040805190810160405280600481526020017f70617468000000000000000000000000000000000000000000000000000000008152506040805190810160405280600381526020017f5553440000000000000000000000000000000000000000000000000000000000815250836107f79092919063ffffffff16565b6107816040805190810160405280600581526020017f74696d657300000000000000000000000000000000000000000000000000000081525060648361082a9092919063ffffffff16565b61079681670de0b6b3a764000060010261085d565b91505090565b6000600260009054906101000a900473ffffffffffffffffffffffffffffffffffffffff16905090565b6107ce611342565b6107d6611342565b6107ed85858584610894909392919063ffffffff16565b9150509392505050565b61080e82846080015161094e90919063ffffffff16565b61082581846080015161094e90919063ffffffff16565b505050565b61084182846080015161094e90919063ffffffff16565b61085881846080015161097390919063ffffffff16565b505050565b600061088c600360009054906101000a900473ffffffffffffffffffffffffffffffffffffffff1684846109c1565b905092915050565b61089c611342565b6108ac8560800151610100610d4d565b50838560000190600019169081600019168152505082856020019073ffffffffffffffffffffffffffffffffffffffff16908173ffffffffffffffffffffffffffffffffffffffff16815250508185604001907bffffffffffffffffffffffffffffffffffffffffffffffffffffffff191690817bffffffffffffffffffffffffffffffffffffffffffffffffffffffff191681525050849050949350505050565b61095b8260038351610da7565b61096e8183610f0590919063ffffffff16565b505050565b60008112151561098e5761098982600083610da7565b6109bd565b6109bc826001837fffffffffffffffffffffffffffffffffffffffffffffffffffffffffffffffff03610da7565b5b5050565b600030600454604051602001808373ffffffffffffffffffffffffffffffffffffffff1673ffffffffffffffffffffffffffffffffffffffff166c01000000000000000000000000028152601401828152602001925050506040516020818303038152906040526040518082805190602001908083835b602083101515610a5d5780518252602082019150602081019050602083039250610a38565b6001836020036101000a038019825116818451168082178552505050505050905001915050604051809103902090506004548360600181815250508360056000836000191660001916815260200190815260200160002060006101000a81548173ffffffffffffffffffffffffffffffffffffffff021916908373ffffffffffffffffffffffffffffffffffffffff16021790555080600019167fb5e6e01e79f91267dc17b4e6314d5d4d03593d2ceee0fbb452b750bd70ea5af960405160405180910390a2600260009054906101000a900473ffffffffffffffffffffffffffffffffffffffff1673ffffffffffffffffffffffffffffffffffffffff16634000aea08584610b6c87610f27565b6040518463ffffffff167c0100000000000000000000000000000000000000000000000000000000028152600401808473ffffffffffffffffffffffffffffffffffffffff1673ffffffffffffffffffffffffffffffffffffffff16815260200183815260200180602001828103825283818151815260200191508051906020019080838360005b83811015610c0f578082015181840152602081019050610bf4565b50505050905090810190601f168015610c3c5780820380516001836020036101000a031916815260200191505b50945050505050602060405180830381600087803b158015610c5d57600080fd5b505af1158015610c71573d6000803e3d6000fd5b505050506040513d6020811015610c8757600080fd5b81019080805190602001909291905050501515610d32576040517f08c379a00000000000000000000000000000000000000000000000000000000081526004018080602001828103825260238152602001807f756e61626c6520746f207472616e73666572416e6443616c6c20746f206f726181526020017f636c65000000000000000000000000000000000000000000000000000000000081525060400191505060405180910390fd5b60016004600082825401925050819055508090509392505050565b610d556113b0565b6000602083811515610d6357fe5b06141515610d8057602082811515610d7757fe5b06602003820191505b81836020018181525050604051808452600081528281016020016040525082905092915050565b601781111515610dd957610dd38160058460ff169060020a0260ff16178461115290919063ffffffff16565b50610f00565b60ff81111515610e2057610e03601860058460ff169060020a02178461115290919063ffffffff16565b50610e1a816001856111729092919063ffffffff16565b50610eff565b61ffff81111515610e6857610e4b601960058460ff169060020a02178461115290919063ffffffff16565b50610e62816002856111729092919063ffffffff16565b50610efe565b63ffffffff81111515610eb257610e95601a60058460ff169060020a02178461115290919063ffffffff16565b50610eac816004856111729092919063ffffffff16565b50610efd565b67ffffffffffffffff81111515610efc57610ee3601b60058460ff169060020a02178461115290919063ffffffff16565b50610efa816008856111729092919063ffffffff16565b505b5b5b5b5b505050565b610f0d6113b0565b610f1f83846000015151848551611194565b905092915050565b6060600360009054906101000a900473ffffffffffffffffffffffffffffffffffffffff1673ffffffffffffffffffffffffffffffffffffffff16634042994690507c01000000000000000000000000000000000000000000000000000000000260008084600001518560200151866040015187606001516001896080015160000151604051602401808973ffffffffffffffffffffffffffffffffffffffff1673ffffffffffffffffffffffffffffffffffffffff16815260200188815260200187600019166000191681526020018673ffffffffffffffffffffffffffffffffffffffff1673ffffffffffffffffffffffffffffffffffffffff168152602001857bffffffffffffffffffffffffffffffffffffffffffffffffffffffff19167bffffffffffffffffffffffffffffffffffffffffffffffffffffffff1916815260200184815260200183815260200180602001828103825283818151815260200191508051906020019080838360005b838110156110b557808201518184015260208101905061109a565b50505050905090810190601f1680156110e25780820380516001836020036101000a031916815260200191505b509950505050505050505050604051602081830303815290604052907bffffffffffffffffffffffffffffffffffffffffffffffffffffffff19166020820180517bffffffffffffffffffffffffffffffffffffffffffffffffffffffff83818316178352505050509050919050565b61115a6113b0565b61116a8384600001515184611251565b905092915050565b61117a6113b0565b61118b8485600001515185856112a1565b90509392505050565b61119c6113b0565b6000806000855185111515156111b157600080fd5b876020015185880111156111dc576111db8860026111d58b602001518b8a01611302565b0261131e565b5b8751805188602083010194508089880111156111f85788870182525b60208801935050505b6020851015156112265781518352602083019250602082019150602085039450611201565b6001856020036101000a03905080198251168184511681811785525050879350505050949350505050565b6112596113b0565b8360200151831015156112785761127784600286602001510261131e565b5b8351805160208583010184815381861415611294576001820183525b5050508390509392505050565b6112a96113b0565b6000856020015185840111156112c9576112c88660028786010261131e565b5b6001836101000a03905085518386820101858319825116178152815185880111156112f45784870182525b505085915050949350505050565b60008183111561131457829050611318565b8190505b92915050565b6060826000015190506113318383610d4d565b5061133c8382610f05565b50505050565b60c06040519081016040528060008019168152602001600073ffffffffffffffffffffffffffffffffffffffff16815260200160007bffffffffffffffffffffffffffffffffffffffffffffffffffffffff19168152602001600081526020016113aa6113ca565b81525090565b604080519081016040528060608152602001600081525090565b6040805190810160405280606081526020016000815250905600a165627a7a7230582080da017cc440f5a974af8b89289cd091dbe1b23cb85e6f8ba2def6ebe11326ab0029",
  "source": "\npragma solidity 0.4.24;\n\nimport \"chainlink/contracts/ChainlinkClient.sol\";\n\n// MyContract inherits the ChainlinkClient contract to gain the\n// functionality of creating Chainlink requests\ncontract MyContract is ChainlinkClient {\n  // Helper constant for testnets: 1 request = 1 LINK\n  uint256 constant private ORACLE_PAYMENT = 1 * LINK;\n  // Helper constant for the Chainlink uint256 multiplier JobID\n  bytes32 constant UINT256_MUL_JOB = bytes32(\"6d1bfe27e7034b1d87b5270556b17277\");\n\n  // Stores the answer from the Chainlink oracle\n  uint256 public currentPrice;\n  address public owner;\n\n  constructor() public {\n    // Set the address for the LINK token for the network\n    setChainlinkToken(0x01BE23585060835E02B77ef475b0Cc51aA1e0709);\n    // Set the address of the oracle to create requests to\n    setChainlinkOracle(0x7AFe1118Ea78C1eae84ca8feE5C65Bc76CcF879e);\n    owner = msg.sender;\n  }\n\n  // Creates a Chainlink request with the uint256 multiplier job\n  function requestEthereumPrice() \n    public\n    returns (bytes32)\n  {\n    // newRequest takes a JobID, a callback address, and callback function as input\n    Chainlink.Request memory req = buildChainlinkRequest(UINT256_MUL_JOB, this, this.fulfill.selector);\n    // Adds a URL with the key \"get\" to the request parameters\n    req.add(\"get\", \"https://min-api.cryptocompare.com/data/price?fsym=ETH&tsyms=USD\");\n    // Uses input param (dot-delimited string) as the \"path\" in the request parameters\n    req.add(\"path\", \"USD\");\n    // Adds an integer with the key \"times\" to the request parameters\n    req.addInt(\"times\", 100);\n    // Sends the request with 1 LINK to the oracle contract\n    return sendChainlinkRequest(req, ORACLE_PAYMENT);\n\n  }\n\n  // fulfill receives a uint256 data type\n  function fulfill(bytes32 _requestId, uint256 _price)\n    public\n    // Use recordChainlinkFulfillment to ensure only the requesting oracle can fulfill\n    recordChainlinkFulfillment(_requestId)\n  {\n    currentPrice = _price;\n  }\n  \n  // withdrawLink allows the owner to withdraw any extra LINK on the contract\n  function withdrawLink()\n    public\n    onlyOwner\n  {\n    LinkTokenInterface link = LinkTokenInterface(chainlinkTokenAddress());\n    require(link.transfer(msg.sender, link.balanceOf(address(this))), \"Unable to transfer\");\n  }\n  \n  modifier onlyOwner() {\n    require(msg.sender == owner);\n    _;\n  }\n}",
  "sourcePath": "/Users/chris/Documents/BlockchainProjects/test2/Chainlink/contracts/MyContract.sol",
  "compiler": {
    "name": "solc",
    "version": "0.4.24+commit.e67f0147.Emscripten.clang"
  },
  "schemaVersion": "3.0.9",
  "updatedAt": "2019-05-19T03:32:43.235Z",
  "devdoc": {
    "methods": {}
  },
  "userdoc": {
    "methods": {}
  }
}